{
  "address": "0x6b8ED6AcC663d8fa58a2e758e12E04E880ADBBf1",
  "abi": [
    {
      "inputs": [
        {
          "internalType": "address",
          "name": "_priceFeedAddress",
          "type": "address"
        }
      ],
      "stateMutability": "nonpayable",
      "type": "constructor"
    },
    {
      "anonymous": false,
      "inputs": [
        {
          "indexed": true,
          "internalType": "address",
          "name": "owner",
          "type": "address"
        },
        {
          "indexed": true,
          "internalType": "address",
          "name": "approved",
          "type": "address"
        },
        {
          "indexed": true,
          "internalType": "uint256",
          "name": "tokenId",
          "type": "uint256"
        }
      ],
      "name": "Approval",
      "type": "event"
    },
    {
      "anonymous": false,
      "inputs": [
        {
          "indexed": true,
          "internalType": "address",
          "name": "owner",
          "type": "address"
        },
        {
          "indexed": true,
          "internalType": "address",
          "name": "operator",
          "type": "address"
        },
        {
          "indexed": false,
          "internalType": "bool",
          "name": "approved",
          "type": "bool"
        }
      ],
      "name": "ApprovalForAll",
      "type": "event"
    },
    {
      "anonymous": false,
      "inputs": [
        {
          "indexed": true,
          "internalType": "address",
          "name": "previousOwner",
          "type": "address"
        },
        {
          "indexed": true,
          "internalType": "address",
          "name": "newOwner",
          "type": "address"
        }
      ],
      "name": "OwnershipTransferred",
      "type": "event"
    },
    {
      "anonymous": false,
      "inputs": [
        {
          "indexed": true,
          "internalType": "address",
          "name": "from",
          "type": "address"
        },
        {
          "indexed": true,
          "internalType": "address",
          "name": "to",
          "type": "address"
        },
        {
          "indexed": true,
          "internalType": "uint256",
          "name": "tokenId",
          "type": "uint256"
        }
      ],
      "name": "Transfer",
      "type": "event"
    },
    {
      "inputs": [
        {
          "internalType": "address",
          "name": "to",
          "type": "address"
        },
        {
          "internalType": "uint256",
          "name": "tokenId",
          "type": "uint256"
        }
      ],
      "name": "approve",
      "outputs": [],
      "stateMutability": "nonpayable",
      "type": "function"
    },
    {
      "inputs": [
        {
          "internalType": "address",
          "name": "owner",
          "type": "address"
        }
      ],
      "name": "balanceOf",
      "outputs": [
        {
          "internalType": "uint256",
          "name": "",
          "type": "uint256"
        }
      ],
      "stateMutability": "view",
      "type": "function"
    },
    {
      "inputs": [],
      "name": "create",
      "outputs": [],
      "stateMutability": "nonpayable",
      "type": "function"
    },
    {
      "inputs": [
        {
          "internalType": "string",
          "name": "imageURI",
          "type": "string"
        }
      ],
      "name": "formatTokenURI",
      "outputs": [
        {
          "internalType": "string",
          "name": "",
          "type": "string"
        }
      ],
      "stateMutability": "pure",
      "type": "function"
    },
    {
      "inputs": [
        {
          "internalType": "uint256",
          "name": "tokenId",
          "type": "uint256"
        }
      ],
      "name": "getApproved",
      "outputs": [
        {
          "internalType": "address",
          "name": "",
          "type": "address"
        }
      ],
      "stateMutability": "view",
      "type": "function"
    },
    {
      "inputs": [
        {
          "internalType": "address",
          "name": "owner",
          "type": "address"
        },
        {
          "internalType": "address",
          "name": "operator",
          "type": "address"
        }
      ],
      "name": "isApprovedForAll",
      "outputs": [
        {
          "internalType": "bool",
          "name": "",
          "type": "bool"
        }
      ],
      "stateMutability": "view",
      "type": "function"
    },
    {
      "inputs": [],
      "name": "name",
      "outputs": [
        {
          "internalType": "string",
          "name": "",
          "type": "string"
        }
      ],
      "stateMutability": "view",
      "type": "function"
    },
    {
      "inputs": [],
      "name": "owner",
      "outputs": [
        {
          "internalType": "address",
          "name": "",
          "type": "address"
        }
      ],
      "stateMutability": "view",
      "type": "function"
    },
    {
      "inputs": [
        {
          "internalType": "uint256",
          "name": "tokenId",
          "type": "uint256"
        }
      ],
      "name": "ownerOf",
      "outputs": [
        {
          "internalType": "address",
          "name": "",
          "type": "address"
        }
      ],
      "stateMutability": "view",
      "type": "function"
    },
    {
      "inputs": [],
      "name": "renounceOwnership",
      "outputs": [],
      "stateMutability": "nonpayable",
      "type": "function"
    },
    {
      "inputs": [
        {
          "internalType": "address",
          "name": "from",
          "type": "address"
        },
        {
          "internalType": "address",
          "name": "to",
          "type": "address"
        },
        {
          "internalType": "uint256",
          "name": "tokenId",
          "type": "uint256"
        }
      ],
      "name": "safeTransferFrom",
      "outputs": [],
      "stateMutability": "nonpayable",
      "type": "function"
    },
    {
      "inputs": [
        {
          "internalType": "address",
          "name": "from",
          "type": "address"
        },
        {
          "internalType": "address",
          "name": "to",
          "type": "address"
        },
        {
          "internalType": "uint256",
          "name": "tokenId",
          "type": "uint256"
        },
        {
          "internalType": "bytes",
          "name": "_data",
          "type": "bytes"
        }
      ],
      "name": "safeTransferFrom",
      "outputs": [],
      "stateMutability": "nonpayable",
      "type": "function"
    },
    {
      "inputs": [
        {
          "internalType": "address",
          "name": "operator",
          "type": "address"
        },
        {
          "internalType": "bool",
          "name": "approved",
          "type": "bool"
        }
      ],
      "name": "setApprovalForAll",
      "outputs": [],
      "stateMutability": "nonpayable",
      "type": "function"
    },
    {
      "inputs": [
        {
          "internalType": "bytes4",
          "name": "interfaceId",
          "type": "bytes4"
        }
      ],
      "name": "supportsInterface",
      "outputs": [
        {
          "internalType": "bool",
          "name": "",
          "type": "bool"
        }
      ],
      "stateMutability": "view",
      "type": "function"
    },
    {
      "inputs": [
        {
          "internalType": "string",
          "name": "svg",
          "type": "string"
        }
      ],
      "name": "svgToImageURI",
      "outputs": [
        {
          "internalType": "string",
          "name": "",
          "type": "string"
        }
      ],
      "stateMutability": "pure",
      "type": "function"
    },
    {
      "inputs": [],
      "name": "symbol",
      "outputs": [
        {
          "internalType": "string",
          "name": "",
          "type": "string"
        }
      ],
      "stateMutability": "view",
      "type": "function"
    },
    {
      "inputs": [],
      "name": "tokenCounter",
      "outputs": [
        {
          "internalType": "uint256",
          "name": "",
          "type": "uint256"
        }
      ],
      "stateMutability": "view",
      "type": "function"
    },
    {
      "inputs": [
        {
          "internalType": "uint256",
          "name": "",
          "type": "uint256"
        }
      ],
      "name": "tokenIdToValue",
      "outputs": [
        {
          "internalType": "int256",
          "name": "",
          "type": "int256"
        }
      ],
      "stateMutability": "view",
      "type": "function"
    },
    {
      "inputs": [
        {
          "internalType": "uint256",
          "name": "tokenId",
          "type": "uint256"
        }
      ],
      "name": "tokenURI",
      "outputs": [
        {
          "internalType": "string",
          "name": "",
          "type": "string"
        }
      ],
      "stateMutability": "view",
      "type": "function"
    },
    {
      "inputs": [
        {
          "internalType": "address",
          "name": "from",
          "type": "address"
        },
        {
          "internalType": "address",
          "name": "to",
          "type": "address"
        },
        {
          "internalType": "uint256",
          "name": "tokenId",
          "type": "uint256"
        }
      ],
      "name": "transferFrom",
      "outputs": [],
      "stateMutability": "nonpayable",
      "type": "function"
    },
    {
      "inputs": [
        {
          "internalType": "address",
          "name": "newOwner",
          "type": "address"
        }
      ],
      "name": "transferOwnership",
      "outputs": [],
      "stateMutability": "nonpayable",
      "type": "function"
    }
  ],
  "transactionHash": "0x1eb018371108f5a9b921639cbf7a94d6f5fec8eab0ea1b1aa19419fc64314576",
  "args": [
    "0x8A753747A1Fa494EC906cE90E9f37563A8AF630e"
  ],
  "numDeployments": 1,
  "solcInputHash": "c1905b41a1a8c7dcc06b99fdf7aeec88",
  "bytecode": "0x60806040523480156200001157600080fd5b5060405162003b7f38038062003b7f833981810160405281019062000037919062000327565b6040518060400160405280600981526020017f5072696365204e465400000000000000000000000000000000000000000000008152506040518060400160405280600481526020017f504e4654000000000000000000000000000000000000000000000000000000008152508160009080519060200190620000bb9291906200020d565b508060019080519060200190620000d49291906200020d565b505050620000f7620000eb6200013f60201b60201c565b6200014760201b60201c565b80600860006101000a81548173ffffffffffffffffffffffffffffffffffffffff021916908373ffffffffffffffffffffffffffffffffffffffff16021790555050620003be565b600033905090565b6000600660009054906101000a900473ffffffffffffffffffffffffffffffffffffffff16905081600660006101000a81548173ffffffffffffffffffffffffffffffffffffffff021916908373ffffffffffffffffffffffffffffffffffffffff1602179055508173ffffffffffffffffffffffffffffffffffffffff168173ffffffffffffffffffffffffffffffffffffffff167f8be0079c531659141344cd1fd0a4f28419497f9722a3daafe3b4186f6b6457e060405160405180910390a35050565b8280546200021b9062000388565b90600052602060002090601f0160209004810192826200023f57600085556200028b565b82601f106200025a57805160ff19168380011785556200028b565b828001600101855582156200028b579182015b828111156200028a5782518255916020019190600101906200026d565b5b5090506200029a91906200029e565b5090565b5b80821115620002b95760008160009055506001016200029f565b5090565b600080fd5b600073ffffffffffffffffffffffffffffffffffffffff82169050919050565b6000620002ef82620002c2565b9050919050565b6200030181620002e2565b81146200030d57600080fd5b50565b6000815190506200032181620002f6565b92915050565b60006020828403121562000340576200033f620002bd565b5b6000620003508482850162000310565b91505092915050565b7f4e487b7100000000000000000000000000000000000000000000000000000000600052602260045260246000fd5b60006002820490506001821680620003a157607f821691505b60208210811415620003b857620003b762000359565b5b50919050565b6137b180620003ce6000396000f3fe608060405234801561001057600080fd5b50600436106101375760003560e01c806371aee193116100b8578063ba84a4c41161007c578063ba84a4c41461034c578063c87b56dd1461037c578063d082e381146103ac578063e985e9c5146103ca578063efc81a8c146103fa578063f2fde38b1461040457610137565b806371aee193146102a85780638da5cb5b146102d857806395d89b41146102f6578063a22cb46514610314578063b88d4fde1461033057610137565b806330d871c6116100ff57806330d871c6146101f257806342842e0e146102225780636352211e1461023e57806370a082311461026e578063715018a61461029e57610137565b806301ffc9a71461013c57806306fdde031461016c578063081812fc1461018a578063095ea7b3146101ba57806323b872dd146101d6575b600080fd5b61015660048036038101906101519190611f50565b610420565b6040516101639190611f98565b60405180910390f35b610174610502565b604051610181919061204c565b60405180910390f35b6101a4600480360381019061019f91906120a4565b610594565b6040516101b19190612112565b60405180910390f35b6101d460048036038101906101cf9190612159565b610619565b005b6101f060048036038101906101eb9190612199565b610731565b005b61020c60048036038101906102079190612321565b610791565b604051610219919061204c565b60405180910390f35b61023c60048036038101906102379190612199565b610805565b005b610258600480360381019061025391906120a4565b610825565b6040516102659190612112565b60405180910390f35b6102886004803603810190610283919061236a565b6108d7565b60405161029591906123a6565b60405180910390f35b6102a661098f565b005b6102c260048036038101906102bd9190612321565b610a17565b6040516102cf919061204c565b60405180910390f35b6102e0610a67565b6040516102ed9190612112565b60405180910390f35b6102fe610a91565b60405161030b919061204c565b60405180910390f35b61032e600480360381019061032991906123ed565b610b23565b005b61034a600480360381019061034591906124ce565b610b39565b005b610366600480360381019061036191906120a4565b610b9b565b604051610373919061256a565b60405180910390f35b610396600480360381019061039191906120a4565b610bb3565b6040516103a3919061204c565b60405180910390f35b6103b4610e33565b6040516103c191906123a6565b60405180910390f35b6103e460048036038101906103df9190612585565b610e39565b6040516103f19190611f98565b60405180910390f35b610402610ecd565b005b61041e6004803603810190610419919061236a565b610fa4565b005b60007f80ac58cd000000000000000000000000000000000000000000000000000000007bffffffffffffffffffffffffffffffffffffffffffffffffffffffff1916827bffffffffffffffffffffffffffffffffffffffffffffffffffffffff191614806104eb57507f5b5e139f000000000000000000000000000000000000000000000000000000007bffffffffffffffffffffffffffffffffffffffffffffffffffffffff1916827bffffffffffffffffffffffffffffffffffffffffffffffffffffffff1916145b806104fb57506104fa8261109c565b5b9050919050565b606060008054610511906125f4565b80601f016020809104026020016040519081016040528092919081815260200182805461053d906125f4565b801561058a5780601f1061055f5761010080835404028352916020019161058a565b820191906000526020600020905b81548152906001019060200180831161056d57829003601f168201915b5050505050905090565b600061059f82611106565b6105de576040517f08c379a00000000000000000000000000000000000000000000000000000000081526004016105d590612698565b60405180910390fd5b6004600083815260200190815260200160002060009054906101000a900473ffffffffffffffffffffffffffffffffffffffff169050919050565b600061062482610825565b90508073ffffffffffffffffffffffffffffffffffffffff168373ffffffffffffffffffffffffffffffffffffffff161415610695576040517f08c379a000000000000000000000000000000000000000000000000000000000815260040161068c9061272a565b60405180910390fd5b8073ffffffffffffffffffffffffffffffffffffffff166106b4611172565b73ffffffffffffffffffffffffffffffffffffffff1614806106e357506106e2816106dd611172565b610e39565b5b610722576040517f08c379a0000000000000000000000000000000000000000000000000000000008152600401610719906127bc565b60405180910390fd5b61072c838361117a565b505050565b61074261073c611172565b82611233565b610781576040517f08c379a00000000000000000000000000000000000000000000000000000000081526004016107789061284e565b60405180910390fd5b61078c838383611311565b505050565b606060006040518060400160405280601a81526020017f646174613a696d6167652f7376672b786d6c3b6261736536342c000000000000815250905060006107d88461156d565b905081816040516020016107ed9291906128aa565b60405160208183030381529060405292505050919050565b61082083838360405180602001604052806000815250610b39565b505050565b6000806002600084815260200190815260200160002060009054906101000a900473ffffffffffffffffffffffffffffffffffffffff169050600073ffffffffffffffffffffffffffffffffffffffff168173ffffffffffffffffffffffffffffffffffffffff1614156108ce576040517f08c379a00000000000000000000000000000000000000000000000000000000081526004016108c590612940565b60405180910390fd5b80915050919050565b60008073ffffffffffffffffffffffffffffffffffffffff168273ffffffffffffffffffffffffffffffffffffffff161415610948576040517f08c379a000000000000000000000000000000000000000000000000000000000815260040161093f906129d2565b60405180910390fd5b600360008373ffffffffffffffffffffffffffffffffffffffff1673ffffffffffffffffffffffffffffffffffffffff168152602001908152602001600020549050919050565b610997611172565b73ffffffffffffffffffffffffffffffffffffffff166109b5610a67565b73ffffffffffffffffffffffffffffffffffffffff1614610a0b576040517f08c379a0000000000000000000000000000000000000000000000000000000008152600401610a0290612a3e565b60405180910390fd5b610a1560006116e6565b565b6060610a4182604051602001610a2d9190612bb4565b60405160208183030381529060405261156d565b604051602001610a519190612c43565b6040516020818303038152906040529050919050565b6000600660009054906101000a900473ffffffffffffffffffffffffffffffffffffffff16905090565b606060018054610aa0906125f4565b80601f0160208091040260200160405190810160405280929190818152602001828054610acc906125f4565b8015610b195780601f10610aee57610100808354040283529160200191610b19565b820191906000526020600020905b815481529060010190602001808311610afc57829003601f168201915b5050505050905090565b610b35610b2e611172565b83836117ac565b5050565b610b4a610b44611172565b83611233565b610b89576040517f08c379a0000000000000000000000000000000000000000000000000000000008152600401610b809061284e565b60405180910390fd5b610b9584848484611919565b50505050565b60096020528060005260406000206000915090505481565b6060610bbe82611106565b610bfd576040517f08c379a0000000000000000000000000000000000000000000000000000000008152600401610bf490612cd7565b60405180910390fd5b6000600860009054906101000a900473ffffffffffffffffffffffffffffffffffffffff1673ffffffffffffffffffffffffffffffffffffffff1663feaf968c6040518163ffffffff1660e01b815260040160a060405180830381865afa158015610c6c573d6000803e3d6000fd5b505050506040513d601f19601f82011682018060405250810190610c909190612d7a565b505050915050600060096000858152602001908152602001600020549050610cb6611ebd565b60405180610120016040528060fb815260200161368160fb913981600060038110610ce457610ce3612df5565b5b6020020181905250818312610d2a5760405180610120016040528060fd815260200161358460fd913981600060038110610d2157610d20612df5565b5b60200201819052505b610d3383611975565b81600160038110610d4757610d46612df5565b5b60200201819052506040518060400160405280600d81526020017f3c2f746578743e3c2f7376673e0000000000000000000000000000000000000081525081600260038110610d9957610d98612df5565b5b6020020181905250600081600060038110610db757610db6612df5565b5b602002015182600160038110610dd057610dcf612df5565b5b602002015183600260038110610de957610de8612df5565b5b6020020151604051602001610e0093929190612e24565b60405160208183030381529060405290506000610e1c82610791565b9050610e2781610a17565b95505050505050919050565b60075481565b6000600560008473ffffffffffffffffffffffffffffffffffffffff1673ffffffffffffffffffffffffffffffffffffffff16815260200190815260200160002060008373ffffffffffffffffffffffffffffffffffffffff1673ffffffffffffffffffffffffffffffffffffffff16815260200190815260200160002060009054906101000a900460ff16905092915050565b6000600860009054906101000a900473ffffffffffffffffffffffffffffffffffffffff1673ffffffffffffffffffffffffffffffffffffffff1663feaf968c6040518163ffffffff1660e01b815260040160a060405180830381865afa158015610f3c573d6000803e3d6000fd5b505050506040513d601f19601f82011682018060405250810190610f609190612d7a565b5050509150508060096000600754815260200190815260200160002081905550610f8c33600754611ad6565b6001600754610f9b9190612e84565b60078190555050565b610fac611172565b73ffffffffffffffffffffffffffffffffffffffff16610fca610a67565b73ffffffffffffffffffffffffffffffffffffffff1614611020576040517f08c379a000000000000000000000000000000000000000000000000000000000815260040161101790612a3e565b60405180910390fd5b600073ffffffffffffffffffffffffffffffffffffffff168173ffffffffffffffffffffffffffffffffffffffff161415611090576040517f08c379a000000000000000000000000000000000000000000000000000000000815260040161108790612f4c565b60405180910390fd5b611099816116e6565b50565b60007f01ffc9a7000000000000000000000000000000000000000000000000000000007bffffffffffffffffffffffffffffffffffffffffffffffffffffffff1916827bffffffffffffffffffffffffffffffffffffffffffffffffffffffff1916149050919050565b60008073ffffffffffffffffffffffffffffffffffffffff166002600084815260200190815260200160002060009054906101000a900473ffffffffffffffffffffffffffffffffffffffff1673ffffffffffffffffffffffffffffffffffffffff1614159050919050565b600033905090565b816004600083815260200190815260200160002060006101000a81548173ffffffffffffffffffffffffffffffffffffffff021916908373ffffffffffffffffffffffffffffffffffffffff160217905550808273ffffffffffffffffffffffffffffffffffffffff166111ed83610825565b73ffffffffffffffffffffffffffffffffffffffff167f8c5be1e5ebec7d5bd14f71427d1e84f3dd0314c0f7b2291e5b200ac8c7c3b92560405160405180910390a45050565b600061123e82611106565b61127d576040517f08c379a000000000000000000000000000000000000000000000000000000000815260040161127490612fde565b60405180910390fd5b600061128883610825565b90508073ffffffffffffffffffffffffffffffffffffffff168473ffffffffffffffffffffffffffffffffffffffff1614806112f757508373ffffffffffffffffffffffffffffffffffffffff166112df84610594565b73ffffffffffffffffffffffffffffffffffffffff16145b8061130857506113078185610e39565b5b91505092915050565b8273ffffffffffffffffffffffffffffffffffffffff1661133182610825565b73ffffffffffffffffffffffffffffffffffffffff1614611387576040517f08c379a000000000000000000000000000000000000000000000000000000000815260040161137e90613070565b60405180910390fd5b600073ffffffffffffffffffffffffffffffffffffffff168273ffffffffffffffffffffffffffffffffffffffff1614156113f7576040517f08c379a00000000000000000000000000000000000000000000000000000000081526004016113ee90613102565b60405180910390fd5b611402838383611af4565b61140d60008261117a565b6001600360008573ffffffffffffffffffffffffffffffffffffffff1673ffffffffffffffffffffffffffffffffffffffff168152602001908152602001600020600082825461145d9190613122565b925050819055506001600360008473ffffffffffffffffffffffffffffffffffffffff1673ffffffffffffffffffffffffffffffffffffffff16815260200190815260200160002060008282546114b49190612e84565b92505081905550816002600083815260200190815260200160002060006101000a81548173ffffffffffffffffffffffffffffffffffffffff021916908373ffffffffffffffffffffffffffffffffffffffff160217905550808273ffffffffffffffffffffffffffffffffffffffff168473ffffffffffffffffffffffffffffffffffffffff167fddf252ad1be2c89b69c2b068fc378daa952ba7f163c4a11628f55a4df523b3ef60405160405180910390a4505050565b6060600082511415611590576040518060200160405280600081525090506116e1565b600060405180606001604052806040815260200161354460409139905060006003600285516115bf9190612e84565b6115c99190613185565b60046115d591906131b6565b905060006020826115e69190612e84565b67ffffffffffffffff8111156115ff576115fe6121f6565b5b6040519080825280601f01601f1916602001820160405280156116315781602001600182028036833780820191505090505b509050818152600183018586518101602084015b818310156116a0576003830192508251603f8160121c168501518253600182019150603f81600c1c168501518253600182019150603f8160061c168501518253600182019150603f8116850151825360018201915050611645565b6003895106600181146116ba57600281146116ca576116d5565b613d3d60f01b60028303526116d5565b603d60f81b60018303525b50505050508093505050505b919050565b6000600660009054906101000a900473ffffffffffffffffffffffffffffffffffffffff16905081600660006101000a81548173ffffffffffffffffffffffffffffffffffffffff021916908373ffffffffffffffffffffffffffffffffffffffff1602179055508173ffffffffffffffffffffffffffffffffffffffff168173ffffffffffffffffffffffffffffffffffffffff167f8be0079c531659141344cd1fd0a4f28419497f9722a3daafe3b4186f6b6457e060405160405180910390a35050565b8173ffffffffffffffffffffffffffffffffffffffff168373ffffffffffffffffffffffffffffffffffffffff16141561181b576040517f08c379a00000000000000000000000000000000000000000000000000000000081526004016118129061325c565b60405180910390fd5b80600560008573ffffffffffffffffffffffffffffffffffffffff1673ffffffffffffffffffffffffffffffffffffffff16815260200190815260200160002060008473ffffffffffffffffffffffffffffffffffffffff1673ffffffffffffffffffffffffffffffffffffffff16815260200190815260200160002060006101000a81548160ff0219169083151502179055508173ffffffffffffffffffffffffffffffffffffffff168373ffffffffffffffffffffffffffffffffffffffff167f17307eab39ab6107e8899845ad3d59bd9653f200f220920489ca2b5937696c318360405161190c9190611f98565b60405180910390a3505050565b611924848484611311565b61193084848484611af9565b61196f576040517f08c379a0000000000000000000000000000000000000000000000000000000008152600401611966906132ee565b60405180910390fd5b50505050565b606060008214156119bd576040518060400160405280600181526020017f30000000000000000000000000000000000000000000000000000000000000008152509050611ad1565b600082905060005b600082146119ef5780806119d89061330e565b915050600a826119e89190613185565b91506119c5565b60008167ffffffffffffffff811115611a0b57611a0a6121f6565b5b6040519080825280601f01601f191660200182016040528015611a3d5781602001600182028036833780820191505090505b5090505b60008514611aca57600182611a569190613122565b9150600a85611a659190613357565b6030611a719190612e84565b60f81b818381518110611a8757611a86612df5565b5b60200101907effffffffffffffffffffffffffffffffffffffffffffffffffffffffffffff1916908160001a905350600a85611ac39190613185565b9450611a41565b8093505050505b919050565b611af0828260405180602001604052806000815250611c81565b5050565b505050565b6000611b1a8473ffffffffffffffffffffffffffffffffffffffff16611cdc565b15611c74578373ffffffffffffffffffffffffffffffffffffffff1663150b7a02611b43611172565b8786866040518563ffffffff1660e01b8152600401611b6594939291906133dd565b6020604051808303816000875af1925050508015611ba157506040513d601f19601f82011682018060405250810190611b9e919061343e565b60015b611c24573d8060008114611bd1576040519150601f19603f3d011682016040523d82523d6000602084013e611bd6565b606091505b50600081511415611c1c576040517f08c379a0000000000000000000000000000000000000000000000000000000008152600401611c13906132ee565b60405180910390fd5b805181602001fd5b63150b7a0260e01b7bffffffffffffffffffffffffffffffffffffffffffffffffffffffff1916817bffffffffffffffffffffffffffffffffffffffffffffffffffffffff191614915050611c79565b600190505b949350505050565b611c8b8383611cef565b611c986000848484611af9565b611cd7576040517f08c379a0000000000000000000000000000000000000000000000000000000008152600401611cce906132ee565b60405180910390fd5b505050565b600080823b905060008111915050919050565b600073ffffffffffffffffffffffffffffffffffffffff168273ffffffffffffffffffffffffffffffffffffffff161415611d5f576040517f08c379a0000000000000000000000000000000000000000000000000000000008152600401611d56906134b7565b60405180910390fd5b611d6881611106565b15611da8576040517f08c379a0000000000000000000000000000000000000000000000000000000008152600401611d9f90613523565b60405180910390fd5b611db460008383611af4565b6001600360008473ffffffffffffffffffffffffffffffffffffffff1673ffffffffffffffffffffffffffffffffffffffff1681526020019081526020016000206000828254611e049190612e84565b92505081905550816002600083815260200190815260200160002060006101000a81548173ffffffffffffffffffffffffffffffffffffffff021916908373ffffffffffffffffffffffffffffffffffffffff160217905550808273ffffffffffffffffffffffffffffffffffffffff16600073ffffffffffffffffffffffffffffffffffffffff167fddf252ad1be2c89b69c2b068fc378daa952ba7f163c4a11628f55a4df523b3ef60405160405180910390a45050565b60405180606001604052806003905b6060815260200190600190039081611ecc5790505090565b6000604051905090565b600080fd5b600080fd5b60007fffffffff0000000000000000000000000000000000000000000000000000000082169050919050565b611f2d81611ef8565b8114611f3857600080fd5b50565b600081359050611f4a81611f24565b92915050565b600060208284031215611f6657611f65611eee565b5b6000611f7484828501611f3b565b91505092915050565b60008115159050919050565b611f9281611f7d565b82525050565b6000602082019050611fad6000830184611f89565b92915050565b600081519050919050565b600082825260208201905092915050565b60005b83811015611fed578082015181840152602081019050611fd2565b83811115611ffc576000848401525b50505050565b6000601f19601f8301169050919050565b600061201e82611fb3565b6120288185611fbe565b9350612038818560208601611fcf565b61204181612002565b840191505092915050565b600060208201905081810360008301526120668184612013565b905092915050565b6000819050919050565b6120818161206e565b811461208c57600080fd5b50565b60008135905061209e81612078565b92915050565b6000602082840312156120ba576120b9611eee565b5b60006120c88482850161208f565b91505092915050565b600073ffffffffffffffffffffffffffffffffffffffff82169050919050565b60006120fc826120d1565b9050919050565b61210c816120f1565b82525050565b60006020820190506121276000830184612103565b92915050565b612136816120f1565b811461214157600080fd5b50565b6000813590506121538161212d565b92915050565b600080604083850312156121705761216f611eee565b5b600061217e85828601612144565b925050602061218f8582860161208f565b9150509250929050565b6000806000606084860312156121b2576121b1611eee565b5b60006121c086828701612144565b93505060206121d186828701612144565b92505060406121e28682870161208f565b9150509250925092565b600080fd5b600080fd5b7f4e487b7100000000000000000000000000000000000000000000000000000000600052604160045260246000fd5b61222e82612002565b810181811067ffffffffffffffff8211171561224d5761224c6121f6565b5b80604052505050565b6000612260611ee4565b905061226c8282612225565b919050565b600067ffffffffffffffff82111561228c5761228b6121f6565b5b61229582612002565b9050602081019050919050565b82818337600083830152505050565b60006122c46122bf84612271565b612256565b9050828152602081018484840111156122e0576122df6121f1565b5b6122eb8482856122a2565b509392505050565b600082601f830112612308576123076121ec565b5b81356123188482602086016122b1565b91505092915050565b60006020828403121561233757612336611eee565b5b600082013567ffffffffffffffff81111561235557612354611ef3565b5b612361848285016122f3565b91505092915050565b6000602082840312156123805761237f611eee565b5b600061238e84828501612144565b91505092915050565b6123a08161206e565b82525050565b60006020820190506123bb6000830184612397565b92915050565b6123ca81611f7d565b81146123d557600080fd5b50565b6000813590506123e7816123c1565b92915050565b6000806040838503121561240457612403611eee565b5b600061241285828601612144565b9250506020612423858286016123d8565b9150509250929050565b600067ffffffffffffffff821115612448576124476121f6565b5b61245182612002565b9050602081019050919050565b600061247161246c8461242d565b612256565b90508281526020810184848401111561248d5761248c6121f1565b5b6124988482856122a2565b509392505050565b600082601f8301126124b5576124b46121ec565b5b81356124c584826020860161245e565b91505092915050565b600080600080608085870312156124e8576124e7611eee565b5b60006124f687828801612144565b945050602061250787828801612144565b93505060406125188782880161208f565b925050606085013567ffffffffffffffff81111561253957612538611ef3565b5b612545878288016124a0565b91505092959194509250565b6000819050919050565b61256481612551565b82525050565b600060208201905061257f600083018461255b565b92915050565b6000806040838503121561259c5761259b611eee565b5b60006125aa85828601612144565b92505060206125bb85828601612144565b9150509250929050565b7f4e487b7100000000000000000000000000000000000000000000000000000000600052602260045260246000fd5b6000600282049050600182168061260c57607f821691505b602082108114156126205761261f6125c5565b5b50919050565b7f4552433732313a20617070726f76656420717565727920666f72206e6f6e657860008201527f697374656e7420746f6b656e0000000000000000000000000000000000000000602082015250565b6000612682602c83611fbe565b915061268d82612626565b604082019050919050565b600060208201905081810360008301526126b181612675565b9050919050565b7f4552433732313a20617070726f76616c20746f2063757272656e74206f776e6560008201527f7200000000000000000000000000000000000000000000000000000000000000602082015250565b6000612714602183611fbe565b915061271f826126b8565b604082019050919050565b6000602082019050818103600083015261274381612707565b9050919050565b7f4552433732313a20617070726f76652063616c6c6572206973206e6f74206f7760008201527f6e6572206e6f7220617070726f76656420666f7220616c6c0000000000000000602082015250565b60006127a6603883611fbe565b91506127b18261274a565b604082019050919050565b600060208201905081810360008301526127d581612799565b9050919050565b7f4552433732313a207472616e736665722063616c6c6572206973206e6f74206f60008201527f776e6572206e6f7220617070726f766564000000000000000000000000000000602082015250565b6000612838603183611fbe565b9150612843826127dc565b604082019050919050565b600060208201905081810360008301526128678161282b565b9050919050565b600081905092915050565b600061288482611fb3565b61288e818561286e565b935061289e818560208601611fcf565b80840191505092915050565b60006128b68285612879565b91506128c28284612879565b91508190509392505050565b7f4552433732313a206f776e657220717565727920666f72206e6f6e657869737460008201527f656e7420746f6b656e0000000000000000000000000000000000000000000000602082015250565b600061292a602983611fbe565b9150612935826128ce565b604082019050919050565b600060208201905081810360008301526129598161291d565b9050919050565b7f4552433732313a2062616c616e636520717565727920666f7220746865207a6560008201527f726f206164647265737300000000000000000000000000000000000000000000602082015250565b60006129bc602a83611fbe565b91506129c782612960565b604082019050919050565b600060208201905081810360008301526129eb816129af565b9050919050565b7f4f776e61626c653a2063616c6c6572206973206e6f7420746865206f776e6572600082015250565b6000612a28602083611fbe565b9150612a33826129f2565b602082019050919050565b60006020820190508181036000830152612a5781612a1b565b9050919050565b7f7b226e616d65223a220000000000000000000000000000000000000000000000600082015250565b6000612a9460098361286e565b9150612a9f82612a5e565b600982019050919050565b7f50726963652046656564204e4654000000000000000000000000000000000000600082015250565b6000612ae0600e8361286e565b9150612aeb82612aaa565b600e82019050919050565b7f222c20226465736372697074696f6e223a22222c20226174747269627574657360008201527f223a22222c2022696d616765223a220000000000000000000000000000000000602082015250565b6000612b52602f8361286e565b9150612b5d82612af6565b602f82019050919050565b7f227d000000000000000000000000000000000000000000000000000000000000600082015250565b6000612b9e60028361286e565b9150612ba982612b68565b600282019050919050565b6000612bbf82612a87565b9150612bca82612ad3565b9150612bd582612b45565b9150612be18284612879565b9150612bec82612b91565b915081905092915050565b7f646174613a6170706c69636174696f6e2f6a736f6e3b6261736536342c000000600082015250565b6000612c2d601d8361286e565b9150612c3882612bf7565b601d82019050919050565b6000612c4e82612c20565b9150612c5a8284612879565b915081905092915050565b7f4552433732314d657461646174613a2055524920717565727920666f72206e6f60008201527f6e6578697374656e7420746f6b656e0000000000000000000000000000000000602082015250565b6000612cc1602f83611fbe565b9150612ccc82612c65565b604082019050919050565b60006020820190508181036000830152612cf081612cb4565b9050919050565b600069ffffffffffffffffffff82169050919050565b612d1681612cf7565b8114612d2157600080fd5b50565b600081519050612d3381612d0d565b92915050565b612d4281612551565b8114612d4d57600080fd5b50565b600081519050612d5f81612d39565b92915050565b600081519050612d7481612078565b92915050565b600080600080600060a08688031215612d9657612d95611eee565b5b6000612da488828901612d24565b9550506020612db588828901612d50565b9450506040612dc688828901612d65565b9350506060612dd788828901612d65565b9250506080612de888828901612d24565b9150509295509295909350565b7f4e487b7100000000000000000000000000000000000000000000000000000000600052603260045260246000fd5b6000612e308286612879565b9150612e3c8285612879565b9150612e488284612879565b9150819050949350505050565b7f4e487b7100000000000000000000000000000000000000000000000000000000600052601160045260246000fd5b6000612e8f8261206e565b9150612e9a8361206e565b9250827fffffffffffffffffffffffffffffffffffffffffffffffffffffffffffffffff03821115612ecf57612ece612e55565b5b828201905092915050565b7f4f776e61626c653a206e6577206f776e657220697320746865207a65726f206160008201527f6464726573730000000000000000000000000000000000000000000000000000602082015250565b6000612f36602683611fbe565b9150612f4182612eda565b604082019050919050565b60006020820190508181036000830152612f6581612f29565b9050919050565b7f4552433732313a206f70657261746f7220717565727920666f72206e6f6e657860008201527f697374656e7420746f6b656e0000000000000000000000000000000000000000602082015250565b6000612fc8602c83611fbe565b9150612fd382612f6c565b604082019050919050565b60006020820190508181036000830152612ff781612fbb565b9050919050565b7f4552433732313a207472616e73666572206f6620746f6b656e2074686174206960008201527f73206e6f74206f776e0000000000000000000000000000000000000000000000602082015250565b600061305a602983611fbe565b915061306582612ffe565b604082019050919050565b600060208201905081810360008301526130898161304d565b9050919050565b7f4552433732313a207472616e7366657220746f20746865207a65726f2061646460008201527f7265737300000000000000000000000000000000000000000000000000000000602082015250565b60006130ec602483611fbe565b91506130f782613090565b604082019050919050565b6000602082019050818103600083015261311b816130df565b9050919050565b600061312d8261206e565b91506131388361206e565b92508282101561314b5761314a612e55565b5b828203905092915050565b7f4e487b7100000000000000000000000000000000000000000000000000000000600052601260045260246000fd5b60006131908261206e565b915061319b8361206e565b9250826131ab576131aa613156565b5b828204905092915050565b60006131c18261206e565b91506131cc8361206e565b9250817fffffffffffffffffffffffffffffffffffffffffffffffffffffffffffffffff048311821515161561320557613204612e55565b5b828202905092915050565b7f4552433732313a20617070726f766520746f2063616c6c657200000000000000600082015250565b6000613246601983611fbe565b915061325182613210565b602082019050919050565b6000602082019050818103600083015261327581613239565b9050919050565b7f4552433732313a207472616e7366657220746f206e6f6e20455243373231526560008201527f63656976657220696d706c656d656e7465720000000000000000000000000000602082015250565b60006132d8603283611fbe565b91506132e38261327c565b604082019050919050565b60006020820190508181036000830152613307816132cb565b9050919050565b60006133198261206e565b91507fffffffffffffffffffffffffffffffffffffffffffffffffffffffffffffffff82141561334c5761334b612e55565b5b600182019050919050565b60006133628261206e565b915061336d8361206e565b92508261337d5761337c613156565b5b828206905092915050565b600081519050919050565b600082825260208201905092915050565b60006133af82613388565b6133b98185613393565b93506133c9818560208601611fcf565b6133d281612002565b840191505092915050565b60006080820190506133f26000830187612103565b6133ff6020830186612103565b61340c6040830185612397565b818103606083015261341e81846133a4565b905095945050505050565b60008151905061343881611f24565b92915050565b60006020828403121561345457613453611eee565b5b600061346284828501613429565b91505092915050565b7f4552433732313a206d696e7420746f20746865207a65726f2061646472657373600082015250565b60006134a1602083611fbe565b91506134ac8261346b565b602082019050919050565b600060208201905081810360008301526134d081613494565b9050919050565b7f4552433732313a20746f6b656e20616c7265616479206d696e74656400000000600082015250565b600061350d601c83611fbe565b9150613518826134d7565b602082019050919050565b6000602082019050818103600083015261353c81613500565b905091905056fe4142434445464748494a4b4c4d4e4f505152535455565758595a6162636465666768696a6b6c6d6e6f707172737475767778797a303132333435363738392b2f3c73766720786d6c6e733d22687474703a2f2f7777772e77332e6f72672f323030302f73766722207072657365727665417370656374526174696f3d22784d696e594d696e206d656574222076696577426f783d223020302033353020333530223e3c7374796c653e2e62617365207b2066696c6c3a20677265656e3b20666f6e742d66616d696c793a2073657269663b20666f6e742d73697a653a20313470783b207d3c2f7374796c653e3c726563742077696474683d223130302522206865696768743d2231303025222066696c6c3d22626c61636b22202f3e3c7465787420783d2231302220793d2232302220636c6173733d2262617365223e3c73766720786d6c6e733d22687474703a2f2f7777772e77332e6f72672f323030302f73766722207072657365727665417370656374526174696f3d22784d696e594d696e206d656574222076696577426f783d223020302033353020333530223e3c7374796c653e2e62617365207b2066696c6c3a207265643b20666f6e742d66616d696c793a2073657269663b20666f6e742d73697a653a20313470783b207d3c2f7374796c653e3c726563742077696474683d223130302522206865696768743d2231303025222066696c6c3d22626c61636b22202f3e3c7465787420783d2231302220793d2232302220636c6173733d2262617365223ea2646970667358221220bbae8ecb5a0eca7484bd1e1104532bd94e01c949489edd0bd972f6cee37b8f4364736f6c634300080b0033",
  "devdoc": {
    "kind": "dev",
    "methods": {
      "approve(address,uint256)": {
        "details": "See {IERC721-approve}."
      },
      "balanceOf(address)": {
        "details": "See {IERC721-balanceOf}."
      },
      "getApproved(uint256)": {
        "details": "See {IERC721-getApproved}."
      },
      "isApprovedForAll(address,address)": {
        "details": "See {IERC721-isApprovedForAll}."
      },
      "name()": {
        "details": "See {IERC721Metadata-name}."
      },
      "owner()": {
        "details": "Returns the address of the current owner."
      },
      "ownerOf(uint256)": {
        "details": "See {IERC721-ownerOf}."
      },
      "renounceOwnership()": {
        "details": "Leaves the contract without owner. It will not be possible to call `onlyOwner` functions anymore. Can only be called by the current owner. NOTE: Renouncing ownership will leave the contract without an owner, thereby removing any functionality that is only available to the owner."
      },
      "safeTransferFrom(address,address,uint256)": {
        "details": "See {IERC721-safeTransferFrom}."
      },
      "safeTransferFrom(address,address,uint256,bytes)": {
        "details": "See {IERC721-safeTransferFrom}."
      },
      "setApprovalForAll(address,bool)": {
        "details": "See {IERC721-setApprovalForAll}."
      },
      "supportsInterface(bytes4)": {
        "details": "See {IERC165-supportsInterface}."
      },
      "symbol()": {
        "details": "See {IERC721Metadata-symbol}."
      },
      "tokenURI(uint256)": {
        "details": "See {IERC721Metadata-tokenURI}."
      },
      "transferFrom(address,address,uint256)": {
        "details": "See {IERC721-transferFrom}."
      },
      "transferOwnership(address)": {
        "details": "Transfers ownership of the contract to a new account (`newOwner`). Can only be called by the current owner."
      }
    },
    "version": 1
  },
  "userdoc": {
    "kind": "user",
    "methods": {},
    "version": 1
  },
  "storageLayout": {
    "storage": [
      {
        "astId": 176,
        "contract": "contracts/price_nft.sol:Nft",
        "label": "_name",
        "offset": 0,
        "slot": "0",
        "type": "t_string_storage"
      },
      {
        "astId": 178,
        "contract": "contracts/price_nft.sol:Nft",
        "label": "_symbol",
        "offset": 0,
        "slot": "1",
        "type": "t_string_storage"
      },
      {
        "astId": 182,
        "contract": "contracts/price_nft.sol:Nft",
        "label": "_owners",
        "offset": 0,
        "slot": "2",
        "type": "t_mapping(t_uint256,t_address)"
      },
      {
        "astId": 186,
        "contract": "contracts/price_nft.sol:Nft",
        "label": "_balances",
        "offset": 0,
        "slot": "3",
        "type": "t_mapping(t_address,t_uint256)"
      },
      {
        "astId": 190,
        "contract": "contracts/price_nft.sol:Nft",
        "label": "_tokenApprovals",
        "offset": 0,
        "slot": "4",
        "type": "t_mapping(t_uint256,t_address)"
      },
      {
        "astId": 196,
        "contract": "contracts/price_nft.sol:Nft",
        "label": "_operatorApprovals",
        "offset": 0,
        "slot": "5",
        "type": "t_mapping(t_address,t_mapping(t_address,t_bool))"
      },
      {
        "astId": 53,
        "contract": "contracts/price_nft.sol:Nft",
        "label": "_owner",
        "offset": 0,
        "slot": "6",
        "type": "t_address"
      },
      {
        "astId": 1827,
        "contract": "contracts/price_nft.sol:Nft",
        "label": "tokenCounter",
        "offset": 0,
        "slot": "7",
        "type": "t_uint256"
      },
      {
        "astId": 1830,
        "contract": "contracts/price_nft.sol:Nft",
        "label": "priceFeed",
        "offset": 0,
        "slot": "8",
        "type": "t_contract(AggregatorV3Interface)45"
      },
      {
        "astId": 1834,
        "contract": "contracts/price_nft.sol:Nft",
        "label": "tokenIdToValue",
        "offset": 0,
        "slot": "9",
        "type": "t_mapping(t_uint256,t_int256)"
      }
    ],
    "types": {
      "t_address": {
        "encoding": "inplace",
        "label": "address",
        "numberOfBytes": "20"
      },
      "t_bool": {
        "encoding": "inplace",
        "label": "bool",
        "numberOfBytes": "1"
      },
      "t_contract(AggregatorV3Interface)45": {
        "encoding": "inplace",
        "label": "contract AggregatorV3Interface",
        "numberOfBytes": "20"
      },
      "t_int256": {
        "encoding": "inplace",
        "label": "int256",
        "numberOfBytes": "32"
      },
      "t_mapping(t_address,t_bool)": {
        "encoding": "mapping",
        "key": "t_address",
        "label": "mapping(address => bool)",
        "numberOfBytes": "32",
        "value": "t_bool"
      },
      "t_mapping(t_address,t_mapping(t_address,t_bool))": {
        "encoding": "mapping",
        "key": "t_address",
        "label": "mapping(address => mapping(address => bool))",
        "numberOfBytes": "32",
        "value": "t_mapping(t_address,t_bool)"
      },
      "t_mapping(t_address,t_uint256)": {
        "encoding": "mapping",
        "key": "t_address",
        "label": "mapping(address => uint256)",
        "numberOfBytes": "32",
        "value": "t_uint256"
      },
      "t_mapping(t_uint256,t_address)": {
        "encoding": "mapping",
        "key": "t_uint256",
        "label": "mapping(uint256 => address)",
        "numberOfBytes": "32",
        "value": "t_address"
      },
      "t_mapping(t_uint256,t_int256)": {
        "encoding": "mapping",
        "key": "t_uint256",
        "label": "mapping(uint256 => int256)",
        "numberOfBytes": "32",
        "value": "t_int256"
      },
      "t_string_storage": {
        "encoding": "bytes",
        "label": "string",
        "numberOfBytes": "32"
      },
      "t_uint256": {
        "encoding": "inplace",
        "label": "uint256",
        "numberOfBytes": "32"
      }
    }
  }
}